:100000000C94E3000C9414010C9414010C9414014E
:100010000C9414010C9414010C9414010C9414010C
:100020000C9414010C9414010C9414010C941401FC
:100030000C9414010C9414010C9414010C941401EC
:100040000C9414010C9414010C9414010C941401DC
:100050000C9414010C9414010C9414010C944A0295
:100060000C94F4020C9414010C9414010C941401DB
:100070000C9414010C9414010C9414010C941401AC
:100080000C9414010C9414010C9414010C9414019C
:100090000C9414010C9414010C9414010C9414018C
:1000A0000C9414010C9414010C9414010C9414017C
:1000B0000C9414010C9414010C9414010C9414016C
:1000C0000C9414010C9414010C9414010C9414015C
:1000D0000C9414010C9414010C94BE020C94940220
:1000E0000C9414010C9474010C9443010C94F901C8
:1000F0000C94AC010C9420040C9452010C94160145
:100100000C94660100002200250028002B002E0020
:100110003100340002010000050108010B0100005C
:100120002100240027002A002D00300033000101A7
:100130000000040107010A01050505050705080877
:100140000808020202020A0A080804040404010161
:100150000101010101010303030303030303040776
:1001600007070C0C0C0C0C0C0C0C0202020206060D
:100170000606060606060B0B0B0B0B0B0B0B010200
:1001800010202008081020401020408002010201A9
:100190000804020101020408102040808040201061
:1001A00008040201800402018040201008040201BA
:1001B0000804020101020408102040800102040822
:1001C00010204080200411241FBECFEFD1E2DEBFFB
:1001D000CDBF00E00CBF12E0A0E0B2E0EEEAF8E034
:1001E00000E00BBF02C007900D92A631B107D9F70E
:1001F00022E0A6E1B2E001C01D92AD3CB207E1F7FA
:1002000010E0C3EED0E000E006C021970109802F86
:10021000FE010E944D04C23ED10780E00807A9F705
:100220000E9443030C9455040C940000AF92BF92BB
:10023000CF92DF92EF92FF920F931F93CF93DF93B2
:100240006C017B018B01040F151FEB015E01AE18E1
:10025000BF08C017D10759F06991D601ED91FC9103
:100260000190F081E02DC6011995892B79F7C50120
:10027000DF91CF911F910F91FF90EF90DF90CF9082
:10028000BF90AF900895FC01538D448D252F30E031
:10029000842F90E0821B930B541710F0CF96089593
:1002A00001970895FC01918D828D981761F0A28DC0
:1002B000AE0FBF2FB11D5D968C91928D9F5F9F7386
:1002C000928F90E008958FEF9FEF0895FC01918D3C
:1002D000828D981731F0828DE80FF11D858D90E0A9
:1002E00008958FEF9FEF0895FC01918D228D892F46
:1002F00090E0805C9F4F821B91098F73992708952E
:1003000085E292E00E94740121E0892B09F420E04B
:10031000822F0895FC01A48DA80FB92FB11DA35AF7
:10032000BF4F2C91848D90E001968F739927848F15
:10033000A689B7892C93A089B1898C918370806438
:100340008C93938D848D981306C00288F389E02DD9
:1003500080818F7D80830895EF92FF920F931F938A
:10036000CF93DF93EC0181E0888F9B8D8C8D981368
:100370001AC0E889F989808185FF15C09FB7F89474
:10038000EE89FF896083E889F989808183708064C0
:1003900080839FBF81E090E0DF91CF911F910F910B
:1003A000FF90EF900895F62E0B8D10E00F5F1F4F1A
:1003B0000F731127E02E8C8D8E110CC00FB607FC29
:1003C000FACFE889F989808185FFF5CFCE010E94B7
:1003D0008A01F1CFEB8DEC0FFD2FF11DE35AFF4F9A
:1003E000F0829FB7F8940B8FEA89FB898081806245
:1003F000CFCFCF93DF93EC01888D8823B9F0AA8902
:10040000BB89E889F9898C9185FD03C0808186FDCF
:100410000DC00FB607FCF7CF8C9185FFF2CF80811E
:1004200085FFEDCFCE010E948A01E9CFDF91CF9108
:10043000089580E090E0892B49F080E090E0892BDE
:1004400029F00E94000081110E94000080E090E0ED
:10045000892B49F080E090E0892B29F00E94000070
:1004600081110E94000080E090E0892B49F080E03B
:1004700090E0892B29F00E94000081110E94000069
:1004800080E090E0892B29F00E94800181110C947A
:10049000000008951F920F920FB60F9211242F9310
:1004A0003F938F939F93AF93BF938091C902909195
:1004B000CA02A091CB02B091CC023091C80223E0D5
:1004C000230F2D3758F50196A11DB11D2093C802A9
:1004D0008093C9029093CA02A093CB02B093CC023E
:1004E0008091C4029091C502A091C602B091C7024A
:1004F0000196A11DB11D8093C4029093C502A093E3
:10050000C602B093C702BF91AF919F918F913F9167
:100510002F910F900FBE0F901F90189526E8230F74
:100520000296A11DB11DD2CF1F920F920FB60F924E
:1005300011240BB60F922F933F934F935F936F93BA
:100540007F938F939F93AF93BF93EF93FF9385E236
:1005500092E00E948A01FF91EF91BF91AF919F912C
:100560008F917F916F915F914F913F912F910F905C
:100570000BBE0F900FBE0F901F9018951F920F92F9
:100580000FB60F9211240BB60F922F938F939F9358
:10059000EF93FF93E0913502F09136028081E09174
:1005A0003B02F0913C0282FD1DC0908180913E0291
:1005B0008F5F8F7320913F02821741F0E0913E02DE
:1005C000F0E0EB5DFD4F958F80933E02FF91EF9140
:1005D0009F918F912F910F900BBE0F900FBE0F9098
:1005E0001F9018958081F2CF1F920F920FB60F9235
:1005F00011240BB60F922F933F934F935F936F93FA
:100600007F938F939F93AF93BF93EF93FF939EB589
:100610008091C2028F3020F5E82FF0E0EA5EFD4FB6
:1006200090838F5F8093C2028F30D1F481E08093FA
:10063000C30246E152E0FA0101900020E9F7AF0160
:100640004751524066E172E085E292E00E94160155
:1006500042E050E062E172E085E292E00E94160121
:10066000FF91EF91BF91AF919F918F917F916F918A
:100670005F914F913F912F910F900BBE0F900FBE46
:100680000F901F901895789484B5826084BD84B5CE
:10069000816084BD85B5826085BD85B5816085BD7D
:1006A00080916E00816080936E0010928100809135
:1006B00081008260809381008091810081608093BD
:1006C0008100809180008160809380008091B100E2
:1006D00084608093B1008091B00081608093B0000D
:1006E000809191008260809391008091910081605F
:1006F0008093910080919000816080939000809120
:10070000A10082608093A1008091A100816080930C
:10071000A1008091A00081608093A00080912101C0
:100720008260809321018091210181608093210169
:100730008091200181608093200180917A00846003
:1007400080937A0080917A00826080937A00809111
:100750007A00816080937A0080917A00806880932B
:100760007A001092C100E0913502F091360282E0E9
:100770008083E0913102F09132021082E0913302E5
:10078000F09134028FEC808310923D02E0913902A7
:10079000F0913A0286E08083E0913702F0913802CE
:1007A000808180618083E0913702F09138028081FE
:1007B00088608083E0913702F09138028081806800
:1007C0008083E0913702F091380280818F7D8083B1
:1007D000E1EBF1E02491EBE6F1E084918823C1F0B4
:1007E00090E0880F991FFC01E25EFE4FC591D49105
:1007F000FC01EC5FFE4FA591B4919FB7F89438814E
:10080000822F809583238883EC91E22BEC939FBF0A
:100810008CB580648CBD8CB580688CBD1092C20292
:100820001092C3028CB580688CBD8091C30288236E
:1008300021F01092C3021092C2020E941902F5CF59
:10084000E5E2F2E01382128288EE93E0A0E0B0E0ED
:1008500084839583A683B78384E092E09183808329
:1008600085E391E09587848784E391E09787868785
:1008700080E391E0918B808B81E391E0938B828B7D
:1008800082E391E0958B848B86E391E0978B868B56
:10089000118E128E138E148E0895EE0FFF1F881F77
:0E08A0008BBF0790F691E02D1994F894FFCFCE
:1008AE0000000000AC0116014301F9017401520170
:0608BE0066010D0A0000B6
:00000001FF
