:100000000C9434010C943B050C9410050C94E504FD
:100010000C94BA040C948F040C9464040C9439046A
:100020000C940E040C9465010C9465010C9465010C
:100030000C9465010C9465010C9465010C946501A8
:100040000C9465010C9465010C9465010C94650198
:100050000C9465010C9465010C9465010C94C40327
:100060000C9465010C9465010C9465010C94650178
:100070000C9465010C9465010C9465010C94650168
:100080000C9465010C9465010C9465010C94650158
:100090000C9465010C9465010C9465010C94650148
:1000A0000C9465010C9465010C9465010C94650138
:1000B0000C9465010C9465010C9465010C94650128
:1000C0000C9465010C9465010C9465010C94650118
:1000D0000C9465010C9465010C9465010C94650108
:1000E0000C9465010C94C6010C94BD020C9446025C
:1000F0000C94A1010C94CB010C94AB010C94AF01B6
:100100000C9494010C949B010C94B9010C948C01F7
:100110000C9426020C94C1010C94F3060C94B301C8
:100120000C94BC020C94A5010C9490010C94C70192
:100130000C9498010C9486010C9402070C941703FC
:100140000C94BD0100002100240027002A002D008E
:100150003000330001010000040107010A01000022
:100160002200250028002B002E003100340002015F
:100170000000050108010B010000200023002600FB
:1001800029002C002F0032000001000003010601AD
:10019000090105050505070508080808020202020D
:1001A0000A0A080804040404010101010101010113
:1001B0000303030303030303040707070C0C0C0CDE
:1001C0000C0C0C0C020202020606060606060606C7
:1001D0000B0B0B0B0B0B0B0B010210202008081054
:1001E00020401020408002010201080402010102A7
:1001F0000408102040808040201008040201800480
:1002000002018040201008040201080402010102DA
:1002100004081020408001020408102040800000E3
:100220000A0B02090C0D0E08070304010000000070
:1002300000000000000000000000000000000000BE
:10024000000000000000000000001211100000007B
:10025000000000000000000000000000000000009E
:1002600000000000F306020711241FBECFEFD1E209
:10027000DEBFCDBF00E00CBF22E0ACE1B2E001C0C8
:100280001D92A433B207E1F712E0A0E0B2E0E6E786
:10029000F2E100E00BBF02C007900D92AC31B10754
:1002A000D9F711E0C3E3D1E000E006C021970109CE
:1002B000802FFE010E940B07C233D10780E00807A0
:1002C000A9F70E9466050C9429090C940000089572
:1002D0008150823108F05AC0E82FF0E08827EC58AE
:1002E000FE4F8F4F0C940B079401980186018C01EF
:1002F0009001C6019B01A101A501AB01AF01B301B2
:10030000B901BD01C601C101C701CB0180918000C7
:100310008F77809380000895809180008F7DF9CF42
:1003200080918000877FF5CF84B58F7784BD089555
:1003300084B58F7DFBCF8091B0008F778093B00024
:1003400008958091B0008F7DF9CF809190008F77D4
:10035000809390000895809190008F7DF9CF8091D7
:100360009000877FF5CF8091A0008F778093A000C9
:1003700008958091A0008F7DF9CF8091A000877FA4
:10038000F5CF809120018F7780932001089580918F
:1003900020018F7DF9CF80912001877FF5CFCF930A
:1003A000DF93282F30E0F901E25EFD4F8491F901DF
:1003B000E852FE4FD491F901EE56FE4FC491CC2382
:1003C000A1F081110E946801EC2FF0E0EE0FFF1FF9
:1003D000E858FE4FA591B491EC91ED2381E090E0B7
:1003E00009F480E0DF91CF91089580E090E0FACFAA
:1003F0001F93CF93DF93282F30E0F901E25EFD4F8A
:100400008491F901E852FE4FD491F901EE56FE4F66
:10041000C491CC23A9F0162F81110E946801EC2F02
:10042000F0E0EE0FFF1FE25AFE4FA591B4918FB797
:10043000F894EC91111108C0D095DE23DC938FBFA6
:10044000DF91CF911F910895DE2BF8CF60E080E01F
:100450000E94F80160E081E00E94F80160E089E01C
:100460000E94F80160E083E00E94F80160E084E00F
:100470000E94F80160E085E00E94F80160E086E0FB
:100480000E94F80160E087E00C94F801CF93DF93BD
:10049000CBE0D0E060911C0280E00E94F8018091E6
:1004A0001C0261E0811160E081E00E94F80160912E
:1004B0001C0289E00E94F80180911C0261E0811118
:1004C00060E083E00E94F80160911C0284E00E94D9
:1004D000F80180911C0261E0811160E085E00E94DA
:1004E000F80160911C0286E00E94F80180911C02D4
:1004F00061E0811160E087E00E94F80190911C02A8
:1005000081E0911180E080931C02219709F0C2CF15
:10051000DF91CF910895CF93DF9390E0FC01E852F3
:10052000FE4F24918E569E4FFC0184918823D1F07A
:1005300090E0880F991FFC01EC5BFE4FA591B491F0
:10054000FC01E25AFE4FC591D49161110EC09FB7D4
:10055000F8948C91E22FE0958E238C932881E223EE
:10056000E8839FBFDF91CF9108958FB7F894EC9106
:10057000E22BEC938FBFF6CF0895CF92DF92EF92EC
:10058000FF920F931F93CF93DF93C0902602D090DA
:100590002702D0E0C0E007EF1FEFCC15DD050CF01F
:1005A0003DC0C230D10511F4C9E0D0E086E0E82EAC
:1005B000F12C61E08C2F0E94F801C8010197F1F73E
:1005C000C8010197F1F7C8010197F1F7C801019738
:1005D000F1F760E08C2F0E94F801C8010197F1F754
:1005E000C8010197F1F7C8010197F1F781E0E81A16
:1005F000F108F9F661E08C2F0E94F801C80101971B
:10060000F1F7C8010197F1F7C8010197F1F7C93077
:10061000D10511F4C2E0D0E02196BFCFDF91CF9198
:100620001F910F91FF90EF90DF90CF900895CF939F
:10063000DF9361E080E00E94F801C7EFDFEFCE01B9
:100640000197F1F7CE010197F1F7CE010197F1F78C
:1006500061E081E00E94F801CE010197F1F7CE013F
:100660000197F1F7CE010197F1F761E089E00E946F
:10067000F801CE010197F1F7CE010197F1F7CE0114
:100680000197F1F761E083E00E94F801CE01019744
:10069000F1F7CE010197F1F7CE010197F1F761E093
:1006A00084E00E94F801CE010197F1F7CE01019795
:1006B000F1F7CE010197F1F761E085E00E94F801C2
:1006C000CE010197F1F7CE010197F1F7CE01019725
:1006D000F1F761E086E00E94F801CE010197F1F7A1
:1006E000CE010197F1F7CE010197F1F761E087E0C4
:1006F0000E94F801CE010197F1F7CE010197F1F7C1
:100700002197F1F7DF91CF910895EF92FF920F9328
:100710001F93CF93DF93EC017B018A01888199813C
:10072000009729F02A813B812417350788F4B80106
:100730006F5F7F4F0E943808009791F099838883FC
:100740001B830A832C813D81232B11F4FC01108231
:100750001D830C83B701888199810E9422090CC0F6
:1007600088819981009711F00E94AF071982188241
:100770001D821C821B821A82CE01DF91CF911F91B4
:100780000F91FF90EF9008951F920F920FB60F9266
:1007900011242F933F938F939F93AF93BF93809197
:1007A000280290912902A0912A02B0912B02309147
:1007B000210223E0230F2D3758F50196A11DB11D0D
:1007C000209321028093280290932902A0932A0269
:1007D000B0932B0280911D0290911E02A0911F02E6
:1007E000B09120020196A11DB11D80931D0290932E
:1007F0001E02A0931F02B0932002BF91AF919F9160
:100800008F913F912F910F900FBE0F901F901895D1
:1008100026E8230F0296A11DB11DD2CF1F920F9281
:100820000FB60F9211240BB60F922F933F934F9355
:100830005F936F937F938F939F93AF93BF93EF9348
:10084000FF93E0910E02F0910F021995FF91EF9145
:10085000BF91AF919F918F917F916F915F914F91D8
:100860003F912F910F900BBE0F900FBE0F901F90D6
:1008700018951F920F920FB60F9211240BB60F927C
:100880002F933F934F935F936F937F938F939F9398
:10089000AF93BF93EF93FF93E0910C02F0910D02A1
:1008A0001995FF91EF91BF91AF919F918F917F919A
:1008B0006F915F914F913F912F910F900BBE0F90D1
:1008C0000FBE0F901F9018951F920F920FB60F92A8
:1008D00011240BB60F922F933F934F935F936F9317
:1008E0007F938F939F93AF93BF93EF93FF93E09189
:1008F0000202F09103021995FF91EF91BF91AF9120
:100900009F918F917F916F915F914F913F912F9127
:100910000F900BBE0F900FBE0F901F9018951F9257
:100920000F920FB60F9211240BB60F922F933F9395
:100930004F935F936F937F938F939F93AF93BF93E7
:10094000EF93FF93E0910002F09101021995FF915E
:10095000EF91BF91AF919F918F917F916F915F9137
:100960004F913F912F910F900BBE0F900FBE0F90A4
:100970001F9018951F920F920FB60F9211240BB66D
:100980000F922F933F934F935F936F937F938F9328
:100990009F93AF93BF93EF93FF93E0910A02F0917F
:1009A0000B021995FF91EF91BF91AF919F918F919C
:1009B0007F916F915F914F913F912F910F900BBE5F
:1009C0000F900FBE0F901F9018951F920F920FB6A9
:1009D0000F9211240BB60F922F933F934F935F9377
:1009E0006F937F938F939F93AF93BF93EF93FF93F7
:1009F000E0910802F09109021995FF91EF91BF91E2
:100A0000AF919F918F917F916F915F914F913F91A6
:100A10002F910F900BBE0F900FBE0F901F90189547
:100A20001F920F920FB60F9211240BB60F922F93B5
:100A30003F934F935F936F937F938F939F93AF9366
:100A4000BF93EF93FF93E0910602F091070219958F
:100A5000FF91EF91BF91AF919F918F917F916F9196
:100A60005F914F913F912F910F900BBE0F900FBE52
:100A70000F901F9018951F920F920FB60F9211248E
:100A80000BB60F922F933F934F935F936F937F9388
:100A90008F939F93AF93BF93EF93FF93E0910402E3
:100AA000F09105021995FF91EF91BF91AF919F9140
:100AB0008F917F916F915F914F913F912F910F9007
:100AC0000BBE0F900FBE0F901F901895CF93DF9322
:100AD00000D000D0CDB7DEB7789484B5826084BDF5
:100AE00084B5816084BD85B5826085BD85B5816032
:100AF00085BD80916E00816080936E0010928100B0
:100B0000809181008260809381008091810081606A
:100B1000809381008091800081608093800080912B
:100B2000B10084608093B1008091B00081608093B7
:100B3000B00080919100826080939100809191003B
:100B400081608093910080919000816080939000FB
:100B50008091A10082608093A1008091A1008160BA
:100B60008093A1008091A00081608093A00080917B
:100B70002101826080932101809121018160809315
:100B800021018091200181608093200180917A0071
:100B9000846080937A0080917A00826080937A00EA
:100BA00080917A00816080937A0080917A008068D9
:100BB00080937A001092C10061E080E00E948B0275
:100BC00061E081E00E948B0261E089E00E948B027B
:100BD00061E083E00E948B0261E084E00E948B026E
:100BE00061E085E00E948B0261E086E00E948B025A
:100BF00061E087E00E948B0261E080E00E948B024E
:100C000061E088E00E948B0260E082E10E948B023A
:100C100060E083E10E948B0260E084E10E948B022D
:100C200060E085E10E948B0260E082E00E948B021E
:100C30001A8219821C821B821E821D8244E050E0AF
:100C400066E172E0CE0101960E9485038091220246
:100C500090912302009709F4AFC069817A816115F0
:100C6000710509F4A7C040912402509125022D81FD
:100C70003E814217530708F49DC00E9422098D81CE
:100C80009E8190932702809326021E821D82898175
:100C90009A81009711F00E94AF072FB7F8948091C6
:100CA000280290912902A0912A02B0912B022FBF15
:100CB00080932C0290932D02A0932E02B0932F02CA
:100CC00087E193E090930B0280930A028091690080
:100CD0008F73806880936900EB9A8DEB92E090931C
:100CE000090280930802809169008F7C8062809362
:100CF0006900EA9A86E292E09093070280930602E6
:100D000080916900837F886080936900E99A86E416
:100D100092E0909301028093000280916A008360C8
:100D200080936A00EC9A00E010E085E10E94CF0118
:100D3000892BC9F52FB7F894809128029091290248
:100D4000A0912A02B0912B022FBF40912C0250910A
:100D50002D0260912E0270912F02841B950BA60B21
:100D6000B70B88389341A105B105E8F02FB7F89487
:100D70008091280290912902A0912A02B0912B0221
:100D80002FBF80932C0290932D02A0932E02B0933C
:100D90002F0288E00E94CF0160E0019709F061E036
:100DA00088E00E94F8010115110509F4BECF0E94E8
:100DB0000000BBCF0E94AF0789819A8190932302E4
:100DC000809322028B819C81909325028093240240
:100DD0008D819E8190932702809326021A82198228
:100DE0001C821B8252CFE2E2F2E011821082138257
:100DF00012821582148250E040E06AE172E0CF0175
:100E00000C9485038091220290912302009711F0A7
:100E10000C94AF070895EE0FFF1F881F8BBF07903C
:100E2000F691E02D19940F931F93CF93DF938230A7
:100E3000910510F482E090E0E0913202F0913302EB
:100E400030E020E0B0E0A0E0309799F421153105C2
:100E500009F44AC0281B390B24303105D8F58A81A2
:100E60009B816115710589F1FB0193838283FE01EA
:100E700011C0408151810281138148175907E0F068
:100E80004817590799F4109761F012960C9312972E
:100E900013961C933296CF01DF91CF911F910F9142
:100EA00008950093320210933302F4CF21153105D7
:100EB00051F04217530738F0A901DB019A01BD0137
:100EC000DF01F801C1CFEF01F9CF90933302809396
:100ED0003202CDCFFE01E20FF31F81939193225096
:100EE000310939832883D7CF2091300230913102E4
:100EF000232B41F4209112023091130230933102DE
:100F000020933002209110023091110221153105F9
:100F100041F42DB73EB74091140250911502241BA5
:100F2000350BE0913002F0913102E217F307A0F4A3
:100F30002E1B3F0B2817390778F0AC014E5F5F4F2F
:100F40002417350748F04E0F5F1F5093310240932E
:100F50003002819391939FCFF0E0E0E09CCFCF935C
:100F6000DF930097E9F0FC01329713821282A0917F
:100F70003202B0913302ED0130E020E01097A1F48D
:100F800020813181820F931F2091300230913102F4
:100F90002817390709F061C0F0933102E09330025D
:100FA000DF91CF910895EA01CE17DF07E8F54A8176
:100FB0005B819E0141155105B1F7E901FB83EA838D
:100FC00049915991C40FD51FEC17FD0761F4808139
:100FD00091810296840F951FE9019983888382810C
:100FE00093819B838A83F0E0E0E012968D919C913F
:100FF00013970097B9F52D913C911197CD01029669
:10100000820F931F20913002309131022817390747
:1010100039F6309751F51092330210923202B093A4
:101020003102A0933002BCCFD383C283408151816F
:10103000840F951FC817D90761F44E5F5F4F8881F1
:101040009981480F591F518340838A819B819383E3
:1010500082832115310509F0B0CFF0933302E0937C
:1010600032029ECFFD01DC01C0CF13821282D7CFA6
:101070004F925F926F927F928F929F92AF92BF92A8
:10108000CF92DF92EF92FF920F931F93CF93DF9354
:101090008C01009799F4CB01DF91CF911F910F91B3
:1010A000FF90EF90DF90CF90BF90AF909F908F9088
:1010B0007F906F905F904F900C941307FC01E60FA8
:1010C000F71F9C0122503109E217F30708F4AEC064
:1010D000D901CD91DC911197C617D70720F1C53002
:1010E000D10578F0CE0104978617970750F0C61BFC
:1010F000D70B2297C193D1936D937C93CF010E941C
:10110000AF07C801DF91CF911F910F91FF90EF9032
:10111000DF90CF90BF90AF909F908F907F906F9017
:101120005F904F9008955B01AC1ABD0A4C018C0E84
:101130009D1EA0913202B0913302512C412CF12C12
:10114000E12C109731F58091300290913102881591
:10115000990509F05CC04616570608F058C0809102
:10116000100290911102009741F48DB79EB7409103
:10117000140250911502841B950BE817F90708F02B
:1011800055C0F0933102E0933002F901718360831E
:10119000B8CF8D919C91119712966C9012971396DF
:1011A0007C901397A815B90559F56C0142E0C40E5F
:1011B000D11CCA14DB0420F1AC014A195B09DA0125
:1011C0001296159780F06282738251834083D90111
:1011D0006D937C93E114F10471F0D7011396FC93A5
:1011E000EE9312978ECF22968C0F9D1FF90191835B
:1011F0008083F301EFCFF0933302E093320281CF8B
:101200004816590608F42C017D01D3019ACFCB0171
:101210000E9413077C01009749F0AE01B8010E94BB
:101220001909C8010E94AF0787016BCF10E000E0E9
:1012300068CFFB01DC0102C001900D92415050408B
:10124000D8F70895FB01DC0101900D920020E1F731
:10125000089511E0C3E3D1E000E006C0802FFE0155
:101260000E940B072196011DC433D10780E00807B7
:06127000A9F7F894FFCF7E
:10127600BC02BC02BC02BC02BC02BC02BC02BC0278
:0C128600000034028000656D616400000F
:00000001FF
