:100000000C942A010C945B010C945B010C945B0131
:100010000C945B010C945B010C945B010C945B01F0
:100020000C945B010C945B010C945B010C945B01E0
:100030000C945B010C945B010C945B010C945B01D0
:100040000C945B010C945B010C945B010C945B01C0
:100050000C945B010C945B010C945B010C94E30227
:100060000C945B010C945B010C945B010C945B01A0
:100070000C945B010C945B010C945B010C945B0190
:100080000C945B010C945B010C945B010C945B0180
:100090000C945B010C945B010C945B010C945B0170
:1000A0000C945B010C945B010C945B010C945B0160
:1000B0000C945B010C945B010C945B010C945B0150
:1000C0000C945B010C945B010C945B010C945B0140
:1000D0000C945B010C945B010C945B010C945B0130
:1000E0000C945B010C94C1010C9491010C94A90136
:1000F0000C943B050C94A1010C94A5010C94AF0148
:100100000C94BD010C944A050C948A010C94820154
:100110000C94B7010C9486010C94BC010C948E01D4
:100120000C947C010C949B010C9497010C94B301EA
:1001300000002100240027002A002D003000330099
:1001400001010000040107010A010000220025004E
:1001500028002B002E0031003400020100000501B0
:1001600008010B01000020002300260029002C00BC
:100170002F003200000100000301060109010505FE
:100180000505070508080808020202020A0A08080D
:10019000040404040101010101010101030303033B
:1001A00003030303040707070C0C0C0C0C0C0C0CCA
:1001B0000202020206060606060606060B0B0B0BDB
:1001C0000B0B0B0B01021020200808102040102000
:1001D000408002010201080402010102040810200B
:1001E0004080804020100804020180040201804009
:1001F0002010080402010804020101020408102072
:100200004080010204081020408000000A0B02090F
:100210000C0D0E08070304010000000000000000A0
:1002200000000000000000000000000000000000CE
:10023000000000000000121110000000000000008B
:1002400000000000000000000000000000000000AE
:100250003B054A0511241FBECFEFD1E2DEBFCDBF63
:1002600000E00CBF22E0ACE0B2E001C01D92A3327E
:10027000B207E1F712E0A0E0B2E0E6E0FFE000E064
:100280000BBF02C007900D92AC30B107D9F711E057
:10029000C9E2D1E000E006C021970109802FFE01EC
:1002A0000E945305C832D10780E00807A9F70E94D1
:1002B0002D030C9471070C94000008958150823135
:1002C00008F05AC0E82FF0E08827E659FE4F8F4F1C
:1002D0000C9453058A018E017C0182018601BC01C8
:1002E000910197019B01A101A501A901AF01B301F2
:1002F000BC01B701BD01C101809180008F7780935F
:1003000080000895809180008F7DF9CF80918000DA
:10031000877FF5CF84B58F7784BD089584B58F7DB1
:10032000FBCF8091B0008F778093B00008958091CB
:10033000B0008F7DF9CF809190008F7780939000EF
:100340000895809190008F7DF9CF80919000877FF4
:10035000F5CF8091A0008F778093A00008958091C1
:10036000A0008F7DF9CF8091A000877FF5CF80918D
:1003700020018F77809320010895809120018F7D47
:10038000F9CF80912001877FF5CFCF93DF93282F7E
:1003900030E0F901E65FFD4F8491F901EC53FE4F27
:1003A000D491F901E258FE4FC491CC23A1F0811100
:1003B0000E945E01EC2FF0E0EE0FFF1FEC59FE4FA4
:1003C000A591B491EC91ED2381E090E009F480E0F7
:1003D000DF91CF91089580E090E0FACF1F93CF9303
:1003E000DF93282F30E0F901E65FFD4F8491F9019A
:1003F000EC53FE4FD491F901E258FE4FC491CC2347
:10040000A9F0162F81110E945E01EC2FF0E0EE0F93
:10041000FF1FE65BFE4FA591B4918FB7F894EC9166
:10042000111108C0D095DE23DC938FBFDF91CF91EF
:100430001F910895DE2BF8CFCF93DF9390E0FC015E
:10044000EC53FE4F249182589E4FFC0184918823E7
:10045000D1F090E0880F991FFC01E05DFE4FA5915F
:10046000B491FC01E65BFE4FC591D49161110EC0C1
:100470009FB7F8948C91E22FE0958E238C9328817E
:10048000E223E8839FBFDF91CF9108958FB7F8945F
:10049000EC91E22BEC938FBFF6CF3FB7F8948091AD
:1004A0000D0290910E02A0910F02B091100226B59C
:1004B000A89B05C02F3F19F00196A11DB11D3FBF9C
:1004C000BA2FA92F982F8827BC01CD01620F711D6B
:1004D000811D911D42E0660F771F881F991F4A9565
:1004E000D1F708958F929F92AF92BF92CF92DF92F1
:1004F000EF92FF924B015C010E944D026B017C0167
:100500000E944D026C197D098E099F09683E734057
:1005100081059105A8F321E0821A9108A108B1088C
:1005200088EEC80E83E0D81EE11CF11C81149104F2
:10053000A104B10429F7FF90EF90DF90CF90BF9016
:10054000AF909F908F900895EF92FF920F931F931B
:10055000CF93DF93EC017B018A0188819981009719
:1005600029F02A813B812417350788F4B8016F5F91
:100570007F4F0E948006009791F0998388831B83A8
:100580000A832C813D81232B11F4FC0110821D83F1
:100590000C83B701888199810E946A070CC0888109
:1005A0009981009711F00E94F705198218821D8227
:1005B0001C821B821A82CE01DF91CF911F910F9175
:1005C000FF90EF9008951F920F920FB60F92112493
:1005D0002F933F938F939F93AF93BF93809111027B
:1005E00090911202A0911302B091140230910C026A
:1005F00023E0230F2D3758F50196A11DB11D20933F
:100600000C028093110290931202A0931302B093F4
:10061000140280910D0290910E02A0910F02B091F0
:1006200010020196A11DB11D80930D0290930E0240
:10063000A0930F02B0931002BF91AF919F918F9141
:100640003F912F910F900FBE0F901F90189526E8A5
:10065000230F0296A11DB11DD2CFCF93DF9300D0FF
:1006600000D0CDB7DEB7789484B5826084BD84B500
:10067000816084BD85B5826085BD85B5816085BD9D
:1006800080916E00816080936E0010928100809155
:1006900081008260809381008091810081608093DD
:1006A0008100809180008160809380008091B10002
:1006B00084608093B1008091B00081608093B0002D
:1006C000809191008260809391008091910081607F
:1006D0008093910080919000816080939000809140
:1006E000A10082608093A1008091A100816080932D
:1006F000A1008091A00081608093A00080912101E1
:100700008260809321018091210181608093210189
:100710008091200181608093200180917A00846023
:1007200080937A0080917A00826080937A00809131
:100730007A00816080937A0080917A00806880934B
:100740007A001092C10061E080E00E941C0261E02A
:1007500081E00E941C0261E082E00E941C0261E0D4
:1007600083E00E941C0261E084E00E941C0261E0C0
:1007700085E00E941C0261E086E00E941C0261E0AC
:1007800087E00E941C0261E080E00E941C0261E0A0
:1007900088E00E941C0260E08AE00E941C0260E087
:1007A0008BE00E941C0260E08CE00E941C0260E072
:1007B0008DE00E941C0260E089E00E941C021A8207
:1007C00019821C821B821E821D8244E050E066E07A
:1007D00072E0CE0101960E94A402809119029091CC
:1007E0001A02009709F4C6C069817A816115710502
:1007F00009F4BEC040911B0250911C022D813E8124
:100800004217530708F4B4C00E946A078D819E8185
:1008100090931E0280931D021E821D8289819A81FF
:10082000009711F00E94F7052FB7F89480911102FC
:1008300090911202A0911302B09114022FBF8093E5
:10084000150290931602A0931702B093180290E03D
:10085000E92E90E0F92E8AE00E94C501892B09F06B
:1008600050C061E080E00E94EE0164EF71E080E042
:1008700090E00E94720261E081E00E94EE0164EF6C
:1008800071E080E090E00E94720261E082E00E94EC
:10089000EE0164EF71E080E090E00E94720261E09E
:1008A00083E00E94EE0164EF71E080E090E00E943E
:1008B000720261E084E00E94EE0164EF71E080E08A
:1008C00090E00E94720261E085E00E94EE0164EF18
:1008D00071E080E090E00E94720261E086E00E9498
:1008E000EE0164EF71E080E090E00E94720261E04E
:1008F00087E00E94EE0164EF71E080E090E00E94EA
:1009000072028BE00E94C5018C01892B09F049C05D
:10091000A0901D02B0901E020A151B050CF041C0EC
:1009200086E0C82ED12C61E0802F0E94EE0164E6A3
:1009300070E080E090E00E94720260E0802F0E94F0
:10094000EE0164E670E080E090E00E94720221E037
:10095000C21AD10841F761E0802F0E94EE0164E6DF
:1009600070E080E090E00E9472020F5F1F4FD4CFD2
:100970000E94F70589819A8190931A028093190247
:100980008B819C8190931C0280931B028D819E81A0
:1009900090931E0280931D021A8219821C821B8270
:1009A0003BCF8CE00E94C501892B01F560E080E01F
:1009B0000E94EE0160E081E00E94EE0160E082E0D2
:1009C0000E94EE0160E083E00E94EE0160E084E0BE
:1009D0000E94EE0160E085E00E94EE0160E086E0AA
:1009E0000E94EE0160E087E00E94EE018DE00E942F
:1009F000C501892BC9F52FB7F89480911102909108
:100A00001202A0911302B09114022FBF409115025F
:100A1000509116026091170270911802841B950B79
:100A2000A60BB70B88389341A105B105E8F02FB7A5
:100A3000F8948091110290911202A0911302B0914A
:100A400014022FBF8093150290931602A0931702F1
:100A5000B093180288E00E94C50160E0019709F098
:100A600061E088E00E94EE01E114F10409F4F3CEA4
:100A70000E940000F0CEE9E1F2E0118210821382C0
:100A800012821582148250E040E06AE072E0CF01E9
:100A90000C94A4028091190290911A02009711F00F
:100AA0000C94F7050895EE0FFF1F881F8BBF07906A
:100AB000F691E02D19940F931F93CF93DF9382301B
:100AC000910510F482E090E0E0912102F091220281
:100AD00030E020E0B0E0A0E0309799F42115310536
:100AE00009F44AC0281B390B24303105D8F58A8116
:100AF0009B816115710589F1FB0193838283FE015E
:100B000011C0408151810281138148175907E0F0DB
:100B10004817590799F4109761F012960C931297A1
:100B200013961C933296CF01DF91CF911F910F91B5
:100B300008950093210210932202F4CF211531056C
:100B400051F04217530738F0A901DB019A01BD01AA
:100B5000DF01F801C1CFEF01F9CF9093220280931A
:100B60002102CDCFFE01E20FF31F8193919322501A
:100B7000310939832883D7CF20911F023091200279
:100B8000232B41F420910202309103023093200282
:100B900020931F022091000230910102211531059E
:100BA00041F42DB73EB74091040250910502241B39
:100BB000350BE0911F02F0912002E217F307A0F439
:100BC0002E1B3F0B2817390778F0AC014E5F5F4FA3
:100BD0002417350748F04E0F5F1F509320024093B3
:100BE0001F02819391939FCFF0E0E0E09CCFCF93E1
:100BF000DF930097E9F0FC01329713821282A091F3
:100C00002102B0912202ED0130E020E01097A1F422
:100C100020813181820F931F20911F023091200289
:100C20002817390709F061C0F0932002E0931F02F2
:100C3000DF91CF910895EA01CE17DF07E8F54A81E9
:100C40005B819E0141155105B1F7E901FB83EA8300
:100C500049915991C40FD51FEC17FD0761F48081AC
:100C600091810296840F951FE9019983888382817F
:100C700093819B838A83F0E0E0E012968D919C91B2
:100C800013970097B9F52D913C911197CD010296DC
:100C9000820F931F20911F023091200228173907DD
:100CA00039F6309751F51092220210922102B0933A
:100CB0002002A0931F02BCCFD383C2834081518105
:100CC000840F951FC817D90761F44E5F5F4F888165
:100CD0009981480F591F518340838A819B81938357
:100CE00082832115310509F0B0CFF0932202E09301
:100CF00021029ECFFD01DC01C0CF13821282D7CF2B
:100D00004F925F926F927F928F929F92AF92BF921B
:100D1000CF92DF92EF92FF920F931F93CF93DF93C7
:100D20008C01009799F4CB01DF91CF911F910F9126
:100D3000FF90EF90DF90CF90BF90AF909F908F90FB
:100D40007F906F905F904F900C945B05FC01E60FD5
:100D5000F71F9C0122503109E217F30708F4AEC0D7
:100D6000D901CD91DC911197C617D70720F1C53075
:100D7000D10578F0CE0104978617970750F0C61B6F
:100D8000D70B2297C193D1936D937C93CF010E948F
:100D9000F705C801DF91CF911F910F91FF90EF9060
:100DA000DF90CF90BF90AF909F908F907F906F908B
:100DB0005F904F9008955B01AC1ABD0A4C018C0EF8
:100DC0009D1EA0912102B0912202512C412CF12CA8
:100DD000E12C109731F580911F0290912002881527
:100DE000990509F05CC04616570608F058C0809176
:100DF000000290910102009741F48DB79EB7409197
:100E0000040250910502841B950BE817F90708F0BE
:100E100055C0F0932002E0931F02F90171836083B3
:100E2000B8CF8D919C91119712966C901297139652
:100E30007C901397A815B90559F56C0142E0C40ED2
:100E4000D11CCA14DB0420F1AC014A195B09DA0198
:100E50001296159780F06282738251834083D90184
:100E60006D937C93E114F10471F0D7011396FC9318
:100E7000EE9312978ECF22968C0F9D1FF9019183CE
:100E80008083F301EFCFF0932202E093210281CF20
:100E90004816590608F42C017D01D3019ACFCB01E5
:100EA0000E945B057C01009749F0AE01B8010E94E9
:100EB0006107C8010E94F70587016BCF10E000E0D1
:100EC00068CFFB01DC0102C001900D9241505040FF
:100ED000D8F70895FB01DC0101900D920020E1F7A5
:100EE000089511E0C9E2D1E000E006C0802FFE01C4
:100EF0000E9453052196011DCA32D10780E00807E0
:060F0000A9F7F894FFCFF1
:0C0F0600000023028000656D61640000A3
:00000001FF
