:020000040040BA
:1000000000040020C1004000C9004000CB004000B7
:10001000CD004000CF004000D100400000000000B3
:10002000000000000000000000000000D3004000BD
:10003000D500400000000000D7004000D90040007B
:10004000DB004000DB004000DB004000DB00400044
:10005000DB004000DB004000DB004000000000004F
:10006000DB004000DB00400000000000DB0040003F
:10007000DB004000DB004000DB004000DB00400014
:10008000000000000000000000000000DB00400055
:10009000DB004000DB00400000000000DB0040000F
:1000A000DB004000DB004000DB004000DB004000E4
:1000B000DB004000DB004000DB004000DB004000D4
:1000C0000948804709480047FEE7FEE7FEE7FEE7EC
:1000D000FEE7FEE7FEE7FEE7FEE7FEE70448054928
:1000E000054A064B70470000090140008D014000A1
:1000F0000000002000040020000200200002002078
:10010000704770477047000040F26840C4F20E002C
:100110004FF4007244F20031C0F8982540F2011209
:10012000C5F24D01C0F23712C16740F8482C00BF3C
:100130000268D207FCD048F20162C2F20F0240F816
:10014000402C00BF02689207FCD550F8382C0223DF
:1001500063F3061240F8382C02681207FCD52222FD
:1001600040F8382C02681207FCD5002240F8682CB1
:100170004FF4E052013140F8582CC16741F254402D
:10018000C4F20E004FF400410160704700F016F811
:1001900000F01BF800F020F847490A68202A07D031
:1001A000FAE700F071F800F074F800F077F8F3E780
:1001B00041490A68402AF4D000F015F84FF00104D4
:1001C0003E4D2C603E4D2C6070474FF002043B4D7D
:1001D0002C603B4D2C6070474FF00404374D2C6071
:1001E000374D2C60704700F040F800F05CF800F0EC
:1001F0004BF800F03FF800F056F800F036F800F049
:1002000052F800F041F82C490A68402AC9D000F0A1
:100210004AF800F02AF800F03CF800F030F800F05E
:1002200042F800F031F800F03EF800F01EF800F05F
:100230003AF800F029F820490A68402AB1D000F0C5
:1002400019F800F030F800F010F800F02CF800F089
:100250001BF800F028F800F021F800F01AF8164911
:100260000A68402A9DD0BED170474FF00104154D59
:100270002C6070474FF00204124D2C6070474FF015
:100280000404104D2C6070474FF001040E4D2C609B
:1002900070474FF002040C4D2C6070474FF004047F
:1002A000094D2C6070474FF000064FF4402706F1CF
:1002B0000106BE42FBD170474C0E0E40000E0E40B0
:0C02C000100E0E40300E0E40340E0E40AA
:040000050040018D29
:00000001FF
