:100000000C9428010C9459010C9459010C94590139
:100010000C9459010C9459010C9459010C945901F8
:100020000C9459010C9459010C9459010C945901E8
:100030000C9459010C9459010C9459010C945901D8
:100040000C9459010C9459010C9459010C945901C8
:100050000C9459010C9459010C9459010C9473039C
:100060000C9459010C943D030C9413030C94590106
:100070000C9459010C9459010C9459010C94590198
:100080000C9459010C9459010C9459010C94590188
:100090000C9459010C9459010C9459010C94590178
:1000A0000C9459010C9459010C9459010C94590168
:1000B0000C9459010C9459010C9459010C94590158
:1000C0000C9459010C9459010C9459010C94590148
:1000D0000C9459010C9459010C9459010C94590138
:1000E0000C9459010C940E060C9406060C94E00531
:1000F0000C94E4050C94B6010C94CB050C949D0271
:100100000C9459050C940A060C94F8050C94EE0511
:100110000C94D3050C9450020C94EA050C94DA0567
:100120000C947A010C94F2050C9418020C9454056A
:100130000C94A7010C9400060C94D7050C94CF05E1
:100140000C94CA010C94FC0500000A0B02090C0D6A
:100150000E0807030401000000000000000000007A
:10016000000000000000000000000000000000008F
:10017000000000001211100000000000000000004C
:10018000000000000000000000000000000000006F
:100190002200250028002B002E003100340002012F
:1001A0000000050108010B010000210024002700C8
:1001B0002A002D0030003300010100000401070176
:1001C0000A010505050507050808080802020202DC
:1001D0000A0A0808040404040101010101010101E3
:1001E0000303030303030303040707070C0C0C0CAE
:1001F0000C0C0C0C02020202060606060606060697
:100200000B0B0B0B0B0B0B0B010210202008081023
:100210002040102040800201020108040201010276
:10022000040810204080804020100804020180044F
:1002300002018040201008040201080402010102AA
:1002400004081020408001020408102040800E069F
:1002500011241FBECFEFD1E2DEBFCDBF00E00CBF47
:1002600022E0A4E2B2E001C01D92AC3CB207E1F78B
:1002700012E0A0E0B2E0E2E0FDE000E00BBF02C06F
:1002800007900D92A432B107D9F711E0C8E2D1E08E
:1002900000E006C021970109802FFE010E94770629
:1002A000C732D10780E00807A9F70E94BD030C946C
:1002B0007F060C94000090E0FC01E85FFD4F249164
:1002C0008E539E4FFC018491882399F090E0880F13
:1002D000991FFC01E855FE4FA591B491FC01E2572E
:1002E000FE4F859194918FB7F894EC91E22BEC93AB
:1002F0008FBF0895AF92BF92CF92DF92EF92FF929D
:100300000F931F93CF93DF936C017B018B01040F3D
:10031000151FEB015E01AE18BF08C017D10759F0D9
:100320006991D601ED91FC910190F081E02DC6011B
:100330001995892B79F7C501DF91CF911F910F9105
:10034000FF90EF90DF90CF90BF90AF900895FC01A9
:10035000538D448D252F30E0842F90E0821B930B2A
:10036000541710F0CF96089501970895FC01918DD0
:10037000828D981761F0A28DAE0FBF2FB11D5D96D3
:100380008C91928D9F5F9F73928F90E008958FEF75
:100390009FEF0895FC01918D828D981731F0828D29
:1003A000E80FF11D858D90E008958FEF9FEF089580
:1003B0002FB7F89480912B0290912C02A0912D02DE
:1003C000B0912E022FBF8093370290933802A093F2
:1003D0003902B0933A028FE292E00E94CA0197FF7D
:1003E00026C02FB7F89480912B0290912C02A091F7
:1003F0002D02B0912E022FBF40913702509138024A
:100400006091390270913A02841B950BA60BB70BD1
:10041000409133025091340260913502709136025E
:1004200084179507A607B707B0F28FEF9FEF0895DF
:10043000FC01918D228D892F90E0805C9F4F821B63
:1004400091098F73992708958FE292E00E94180214
:1004500021E0892B09F420E0822F0895FC01A48D6E
:10046000A80FB92FB11DA35ABF4F2C91848D90E0D6
:1004700001968F739927848FA689B7892C93A089B9
:10048000B1898C91837080648C93938D848D981343
:1004900006C00288F389E02D80818F7D80830895D6
:1004A000EF92FF920F931F93CF93DF93EC0181E0C4
:1004B000888F9B8D8C8D98131AC0E889F98980816B
:1004C00085FF15C09FB7F894EE89FF896083E8899E
:1004D000F98980818370806480839FBF81E090E090
:1004E000DF91CF911F910F91FF90EF900895F62E1D
:1004F0000B8D10E00F5F1F4F0F731127E02E8C8DB7
:100500008E110CC00FB607FCFACFE889F9898081FB
:1005100085FFF5CFCE010E942E02F1CFEB8DEC0FBF
:10052000FD2FF11DE35AFF4FF0829FB7F8940B8F18
:10053000EA89FB8980818062CFCFCF93DF93EC0182
:10054000888D8823B9F0AA89BB89E889F9898C91BB
:1005500085FD03C0808186FD0DC00FB607FCF7CF77
:100560008C9185FFF2CF808185FFEDCFCE010E9477
:100570002E02E9CFDF91CF91089580E090E0892BA2
:1005800029F00E94240281110E94000080E090E086
:10059000892B49F080E090E0892B29F00E9400002F
:1005A00081110E94000080E090E0892B49F080E0FA
:1005B00090E0892B29F00E94000081110E94000028
:1005C00080E090E0892B49F080E090E0892B29F0D1
:1005D0000E94000081110C94000008953FB7F89428
:1005E0008091250290912602A0912702B0912802C5
:1005F00026B5A89B05C02F3F19F00196A11DB11D7E
:100600003FBFBA2FA92F982F8827BC01CD01620FB9
:10061000711D811D911D42E0660F771F881F991F74
:100620004A95D1F708951F920F920FB60F92112499
:100630000BB60F922F933F934F935F936F937F93DC
:100640008F939F93AF93BF93EF93FF938FE292E0CB
:100650000E942E02FF91EF91BF91AF919F918F91D8
:100660007F916F915F914F913F912F910F900BBEB2
:100670000F900FBE0F901F9018951F920F920FB6FC
:100680000F9211240BB60F922F938F939F93EF939A
:10069000FF93E0913F02F09140028081E09145029A
:1006A000F091460282FD1DC09081809148028F5FCB
:1006B0008F7320914902821741F0E0914802F0E0E7
:1006C000E15DFD4F958F80934802FF91EF919F91DF
:1006D0008F912F910F900BBE0F900FBE0F901F9018
:1006E00018958081F2CF1F920F920FB60F921124AE
:1006F0002F933F938F939F93AF93BF9380912B0240
:1007000090912C02A0912D02B0912E0230912402E2
:1007100023E0230F2D3758F50196A11DB11D20931D
:10072000240280932B0290932C02A0932D02B0936D
:100730002E028091250290912602A0912702B0916D
:1007400028020196A11DB11D8093250290932602D7
:10075000A0932702B0932802BF91AF919F918F91F0
:100760003F912F910F900FBE0F901F90189526E884
:10077000230F0296A11DB11DD2CFCF93DF93CDB72A
:10078000DEB7A1970FB6F894DEBF0FBECDBF789449
:1007900084B5826084BD84B5816084BD85B5826086
:1007A00085BD85B5816085BD80916E008160809337
:1007B0006E001092810080918100826080938100A0
:1007C00080918100816080938100809180008160B0
:1007D000809380008091B10084608093B10080910B
:1007E000B00081608093B00080919100826080931E
:1007F00091008091910081608093910080919000A0
:100800008160809390008091A10082608093A1001C
:100810008091A10081608093A1008091A0008160FF
:100820008093A000809121018260809321018091BA
:10083000210181608093210180912001816080935A
:10084000200180917A00846080937A0080917A0000
:10085000826080937A0080917A00816080937A0030
:1008600080917A00806880937A001092C1008EE1B6
:100870000E945B018DE10E945B018CE10E945B01A3
:100880008BE10E945B018AE10E945B0189E10E9489
:100890005B0188E10E945B0187E10E945B018EE1C0
:1008A0000E945B0186E10E945B01E0913F02F091B2
:1008B000400282E08083E0913B02F0913C02108292
:1008C000E0913D02F0913E028FEC8083109247024E
:1008D000E0914302F091440286E08083E09141027E
:1008E000F0914202808180618083E0914102F09129
:1008F0004202808188608083E0914102F09142024F
:10090000808180688083E0914102F0914202808181
:100910008F7D80833AE0432E512C612C712C4EE167
:10092000242E312C8FE292E00E941802181619062C
:100930000CF07DC00E94D801FC0197FD9BC08D3258
:10094000910521F0C0970A9708F08DC0C12CD12CD9
:10095000760110E0E130F105D9F0ED32F10509F44E
:1009600087C0CF01C0970A9798F4AAE0B0E0A7012A
:1009700096010E943B066F01FF0FEE08FF08C60EAE
:10098000D71EE81EF91E20E3C21AD108E108F108BB
:100990008FE292E00E94B6010E94D801FC01C0974C
:1009A0000A97C0F2E130F105A9F2112341F0F09469
:1009B000E094D094C094C11CD11CE11CF11CD092D5
:1009C0002A02C09229020D2C000CEE08FF08F7FE47
:1009D00055C06DE28FE292E00E9450022227332739
:1009E000A9012C193D094E095F0919A28E010F5D5D
:1009F0001F4FCA01B901A30192010E945506605D13
:100A0000F80162938F01211531054105510589F7E0
:100A10000115110561F001900020E9F73197AF0150
:100A2000401B510BB8018FE292E00E947A01809145
:100A3000290290912A020EE110E00A970CF46EC090
:100A40004EE050E062E172E08FE292E00E947A01B3
:100A500041E050E061E272E08FE292E00E947A01B0
:100A60000E94BD025FCF8FE292E00E94B60162CF8A
:100A700011E08ECFC12CD12C7601A1CFA701960118
:100A800019A28E010F5D1F4FCA01B901A301920186
:100A90000E945506605DF80162938F0121153105B2
:100AA0004105510589F7B4CF809180008F778093FD
:100AB0008000E22FF0E0EE0FFF1FE257FE4FA591FE
:100AC000B4918FB7F894EC919E2B9C938FBF0E94AA
:100AD000EE026B017C0184EF882E99249394A12C63
:100AE000B12C0E94EE026C197D098E099F09683EA7
:100AF000734081059105A8F3F1E08F1A9108A108D0
:100B0000B10828EEC20E23E0D21EE11CF11C8114B4
:100B10009104A104B10429F701501109809129021F
:100B200090912A029101281B390B201731070CF0F4
:100B300097CF98013327F901E85BFE4F8491F901C3
:100B4000E85FFD4F94912E533E4FF90124912223EB
:100B500009F4BDCF882309F4ACCF8150823108F06D
:100B6000A8CFE82FF0E08827E754FA4F8F4F0C9476
:100B70007706D305D7055405CB05CF055905DA050A
:100B8000E005E405EA05EE05F205F805FC05590562
:100B9000000606060A06809180008F7D88CF80912E
:100BA0008000877F84CF84B58F7784BD82CF84B562
:100BB0008F7DFBCF8091B0008F778093B00079CF8D
:100BC0008091B0008F7DF9CF809190008F778093D6
:100BD00090006FCF809190008F7DF9CF8091900031
:100BE000877FF5CF8091A0008F778093A00061CFA1
:100BF0008091A0008F7DF9CF8091A000877FF5CFF5
:100C0000809120018F778093200153CF8091200124
:100C10008F7DF9CF80912001877FF5CFEFE2F2E061
:100C20001382128288EE93E0A0E0B0E08483958383
:100C3000A683B78384E092E09183808385EC90E083
:100C40009587848784EC90E09787868780EC90E096
:100C5000918B808B81EC90E0938B828B82EC90E087
:100C6000958B848B86EC90E0978B868B118E128E01
:100C7000138E148E08950E944606A59F900DB49F72
:100C8000900DA49F800D911D11240895A29FB00185
:100C9000B39FC001A39F700D811D1124911DB29FB0
:100CA000700D811D1124911D0895A1E21A2EAA1B19
:100CB000BB1BFD010DC0AA1FBB1FEE1FFF1FA2170C
:100CC000B307E407F50720F0A21BB30BE40BF50B09
:100CD000661F771F881F991F1A9469F76095709592
:100CE000809590959B01AC01BD01CF010895EE0F59
:100CF000FF1F881F8BBF0790F691E02D1994F89481
:020D0000FFCF23
:100D02000000000050027A01A7019D021802B601FC
:100D1200CA01496E76616C6964206E756D62657296
:040D2200000A0000C3
:00000001FF
